{
  "_format": "hh-sol-artifact-1",
  "contractName": "Activity",
  "sourceName": "contracts/Activity.sol",
  "abi": [
    {
      "inputs": [],
      "stateMutability": "nonpayable",
      "type": "constructor"
    },
    {
      "inputs": [
        {
          "internalType": "address",
          "name": "sender",
          "type": "address"
        },
        {
          "internalType": "uint256",
          "name": "tokenId",
          "type": "uint256"
        },
        {
          "internalType": "address",
          "name": "owner",
          "type": "address"
        }
      ],
      "name": "ERC721IncorrectOwner",
      "type": "error"
    },
    {
      "inputs": [
        {
          "internalType": "address",
          "name": "operator",
          "type": "address"
        },
        {
          "internalType": "uint256",
          "name": "tokenId",
          "type": "uint256"
        }
      ],
      "name": "ERC721InsufficientApproval",
      "type": "error"
    },
    {
      "inputs": [
        {
          "internalType": "address",
          "name": "approver",
          "type": "address"
        }
      ],
      "name": "ERC721InvalidApprover",
      "type": "error"
    },
    {
      "inputs": [
        {
          "internalType": "address",
          "name": "operator",
          "type": "address"
        }
      ],
      "name": "ERC721InvalidOperator",
      "type": "error"
    },
    {
      "inputs": [
        {
          "internalType": "address",
          "name": "owner",
          "type": "address"
        }
      ],
      "name": "ERC721InvalidOwner",
      "type": "error"
    },
    {
      "inputs": [
        {
          "internalType": "address",
          "name": "receiver",
          "type": "address"
        }
      ],
      "name": "ERC721InvalidReceiver",
      "type": "error"
    },
    {
      "inputs": [
        {
          "internalType": "address",
          "name": "sender",
          "type": "address"
        }
      ],
      "name": "ERC721InvalidSender",
      "type": "error"
    },
    {
      "inputs": [
        {
          "internalType": "uint256",
          "name": "tokenId",
          "type": "uint256"
        }
      ],
      "name": "ERC721NonexistentToken",
      "type": "error"
    },
    {
      "anonymous": false,
      "inputs": [
        {
          "indexed": false,
          "internalType": "uint256",
          "name": "tokenId",
          "type": "uint256"
        },
        {
          "indexed": false,
          "internalType": "string",
          "name": "activityId",
          "type": "string"
        },
        {
          "indexed": false,
          "internalType": "address",
          "name": "scp",
          "type": "address"
        }
      ],
      "name": "ActivityAdded",
      "type": "event"
    },
    {
      "anonymous": false,
      "inputs": [
        {
          "indexed": true,
          "internalType": "address",
          "name": "owner",
          "type": "address"
        },
        {
          "indexed": true,
          "internalType": "address",
          "name": "approved",
          "type": "address"
        },
        {
          "indexed": true,
          "internalType": "uint256",
          "name": "tokenId",
          "type": "uint256"
        }
      ],
      "name": "Approval",
      "type": "event"
    },
    {
      "anonymous": false,
      "inputs": [
        {
          "indexed": true,
          "internalType": "address",
          "name": "owner",
          "type": "address"
        },
        {
          "indexed": true,
          "internalType": "address",
          "name": "operator",
          "type": "address"
        },
        {
          "indexed": false,
          "internalType": "bool",
          "name": "approved",
          "type": "bool"
        }
      ],
      "name": "ApprovalForAll",
      "type": "event"
    },
    {
      "anonymous": false,
      "inputs": [
        {
          "indexed": false,
          "internalType": "uint256",
          "name": "tokenId",
          "type": "uint256"
        },
        {
          "indexed": false,
          "internalType": "bytes32",
          "name": "documentHash",
          "type": "bytes32"
        },
        {
          "indexed": false,
          "internalType": "address",
          "name": "scp",
          "type": "address"
        }
      ],
      "name": "DocumentAdded",
      "type": "event"
    },
    {
      "anonymous": false,
      "inputs": [
        {
          "indexed": false,
          "internalType": "uint256",
          "name": "tokenId",
          "type": "uint256"
        },
        {
          "indexed": false,
          "internalType": "bytes32",
          "name": "documentHash",
          "type": "bytes32"
        },
        {
          "indexed": false,
          "internalType": "address",
          "name": "scp",
          "type": "address"
        }
      ],
      "name": "DocumentRemoved",
      "type": "event"
    },
    {
      "anonymous": false,
      "inputs": [
        {
          "indexed": false,
          "internalType": "uint256",
          "name": "tokenId",
          "type": "uint256"
        },
        {
          "indexed": false,
          "internalType": "string",
          "name": "productId",
          "type": "string"
        },
        {
          "indexed": false,
          "internalType": "address",
          "name": "scp",
          "type": "address"
        }
      ],
      "name": "ProductCreated",
      "type": "event"
    },
    {
      "anonymous": false,
      "inputs": [
        {
          "indexed": true,
          "internalType": "address",
          "name": "from",
          "type": "address"
        },
        {
          "indexed": true,
          "internalType": "address",
          "name": "to",
          "type": "address"
        },
        {
          "indexed": true,
          "internalType": "uint256",
          "name": "tokenId",
          "type": "uint256"
        }
      ],
      "name": "Transfer",
      "type": "event"
    },
    {
      "inputs": [
        {
          "internalType": "uint256",
          "name": "tokenId",
          "type": "uint256"
        },
        {
          "internalType": "string",
          "name": "activityId",
          "type": "string"
        },
        {
          "internalType": "uint256",
          "name": "emissions",
          "type": "uint256"
        }
      ],
      "name": "addActivity",
      "outputs": [],
      "stateMutability": "nonpayable",
      "type": "function"
    },
    {
      "inputs": [
        {
          "internalType": "uint256",
          "name": "tokenId",
          "type": "uint256"
        },
        {
          "internalType": "bytes32",
          "name": "documentHash",
          "type": "bytes32"
        }
      ],
      "name": "addDocument",
      "outputs": [],
      "stateMutability": "nonpayable",
      "type": "function"
    },
    {
      "inputs": [
        {
          "internalType": "address",
          "name": "to",
          "type": "address"
        },
        {
          "internalType": "uint256",
          "name": "tokenId",
          "type": "uint256"
        }
      ],
      "name": "approve",
      "outputs": [],
      "stateMutability": "nonpayable",
      "type": "function"
    },
    {
      "inputs": [
        {
          "internalType": "address",
          "name": "owner",
          "type": "address"
        }
      ],
      "name": "balanceOf",
      "outputs": [
        {
          "internalType": "uint256",
          "name": "",
          "type": "uint256"
        }
      ],
      "stateMutability": "view",
      "type": "function"
    },
    {
      "inputs": [
        {
          "internalType": "string",
          "name": "productId",
          "type": "string"
        },
        {
          "internalType": "uint256",
          "name": "expirationDate",
          "type": "uint256"
        }
      ],
      "name": "createProduct",
      "outputs": [
        {
          "internalType": "uint256",
          "name": "",
          "type": "uint256"
        }
      ],
      "stateMutability": "nonpayable",
      "type": "function"
    },
    {
      "inputs": [
        {
          "internalType": "uint256",
          "name": "tokenId",
          "type": "uint256"
        }
      ],
      "name": "getActivities",
      "outputs": [
        {
          "internalType": "uint256[]",
          "name": "timestamps",
          "type": "uint256[]"
        },
        {
          "internalType": "string[]",
          "name": "activityId",
          "type": "string[]"
        },
        {
          "internalType": "address[]",
          "name": "scps",
          "type": "address[]"
        },
        {
          "internalType": "uint256[]",
          "name": "emissions",
          "type": "uint256[]"
        }
      ],
      "stateMutability": "view",
      "type": "function"
    },
    {
      "inputs": [
        {
          "internalType": "uint256",
          "name": "tokenId",
          "type": "uint256"
        },
        {
          "internalType": "string",
          "name": "activityId",
          "type": "string"
        }
      ],
      "name": "getActivity",
      "outputs": [
        {
          "internalType": "uint256",
          "name": "timestamp",
          "type": "uint256"
        },
        {
          "internalType": "string",
          "name": "id",
          "type": "string"
        },
        {
          "internalType": "address",
          "name": "scp",
          "type": "address"
        },
        {
          "internalType": "uint256",
          "name": "emissions",
          "type": "uint256"
        }
      ],
      "stateMutability": "view",
      "type": "function"
    },
    {
      "inputs": [
        {
          "internalType": "uint256",
          "name": "tokenId",
          "type": "uint256"
        }
      ],
      "name": "getApproved",
      "outputs": [
        {
          "internalType": "address",
          "name": "",
          "type": "address"
        }
      ],
      "stateMutability": "view",
      "type": "function"
    },
    {
      "inputs": [
        {
          "internalType": "uint256",
          "name": "tokenId",
          "type": "uint256"
        },
        {
          "internalType": "bytes32",
          "name": "documentHashToFind",
          "type": "bytes32"
        }
      ],
      "name": "getDocument",
      "outputs": [
        {
          "internalType": "uint256",
          "name": "timestamp",
          "type": "uint256"
        },
        {
          "internalType": "bytes32",
          "name": "documentHash",
          "type": "bytes32"
        }
      ],
      "stateMutability": "view",
      "type": "function"
    },
    {
      "inputs": [
        {
          "internalType": "uint256",
          "name": "tokenId",
          "type": "uint256"
        }
      ],
      "name": "getDocuments",
      "outputs": [
        {
          "internalType": "uint256[]",
          "name": "timestamps",
          "type": "uint256[]"
        },
        {
          "internalType": "bytes32[]",
          "name": "documentHashes",
          "type": "bytes32[]"
        }
      ],
      "stateMutability": "view",
      "type": "function"
    },
    {
      "inputs": [
        {
          "internalType": "address",
          "name": "scp",
          "type": "address"
        }
      ],
      "name": "getEmissionsBySCP",
      "outputs": [
        {
          "internalType": "uint256",
          "name": "",
          "type": "uint256"
        }
      ],
      "stateMutability": "view",
      "type": "function"
    },
    {
      "inputs": [
        {
          "internalType": "address",
          "name": "owner",
          "type": "address"
        },
        {
          "internalType": "address",
          "name": "operator",
          "type": "address"
        }
      ],
      "name": "isApprovedForAll",
      "outputs": [
        {
          "internalType": "bool",
          "name": "",
          "type": "bool"
        }
      ],
      "stateMutability": "view",
      "type": "function"
    },
    {
      "inputs": [],
      "name": "name",
      "outputs": [
        {
          "internalType": "string",
          "name": "",
          "type": "string"
        }
      ],
      "stateMutability": "view",
      "type": "function"
    },
    {
      "inputs": [
        {
          "internalType": "uint256",
          "name": "tokenId",
          "type": "uint256"
        }
      ],
      "name": "ownerOf",
      "outputs": [
        {
          "internalType": "address",
          "name": "",
          "type": "address"
        }
      ],
      "stateMutability": "view",
      "type": "function"
    },
    {
      "inputs": [
        {
          "internalType": "uint256",
          "name": "",
          "type": "uint256"
        }
      ],
      "name": "products",
      "outputs": [
        {
          "internalType": "string",
          "name": "productId",
          "type": "string"
        },
        {
          "internalType": "uint256",
          "name": "creationDate",
          "type": "uint256"
        },
        {
          "internalType": "uint256",
          "name": "expirationDate",
          "type": "uint256"
        },
        {
          "internalType": "address",
          "name": "scp",
          "type": "address"
        }
      ],
      "stateMutability": "view",
      "type": "function"
    },
    {
      "inputs": [
        {
          "internalType": "uint256",
          "name": "tokenId",
          "type": "uint256"
        },
        {
          "internalType": "bytes32",
          "name": "documentHashToRemove",
          "type": "bytes32"
        }
      ],
      "name": "removeDocument",
      "outputs": [],
      "stateMutability": "nonpayable",
      "type": "function"
    },
    {
      "inputs": [
        {
          "internalType": "address",
          "name": "from",
          "type": "address"
        },
        {
          "internalType": "address",
          "name": "to",
          "type": "address"
        },
        {
          "internalType": "uint256",
          "name": "tokenId",
          "type": "uint256"
        }
      ],
      "name": "safeTransferFrom",
      "outputs": [],
      "stateMutability": "nonpayable",
      "type": "function"
    },
    {
      "inputs": [
        {
          "internalType": "address",
          "name": "from",
          "type": "address"
        },
        {
          "internalType": "address",
          "name": "to",
          "type": "address"
        },
        {
          "internalType": "uint256",
          "name": "tokenId",
          "type": "uint256"
        },
        {
          "internalType": "bytes",
          "name": "data",
          "type": "bytes"
        }
      ],
      "name": "safeTransferFrom",
      "outputs": [],
      "stateMutability": "nonpayable",
      "type": "function"
    },
    {
      "inputs": [
        {
          "internalType": "address",
          "name": "operator",
          "type": "address"
        },
        {
          "internalType": "bool",
          "name": "approved",
          "type": "bool"
        }
      ],
      "name": "setApprovalForAll",
      "outputs": [],
      "stateMutability": "nonpayable",
      "type": "function"
    },
    {
      "inputs": [
        {
          "internalType": "bytes4",
          "name": "interfaceId",
          "type": "bytes4"
        }
      ],
      "name": "supportsInterface",
      "outputs": [
        {
          "internalType": "bool",
          "name": "",
          "type": "bool"
        }
      ],
      "stateMutability": "view",
      "type": "function"
    },
    {
      "inputs": [],
      "name": "symbol",
      "outputs": [
        {
          "internalType": "string",
          "name": "",
          "type": "string"
        }
      ],
      "stateMutability": "view",
      "type": "function"
    },
    {
      "inputs": [
        {
          "internalType": "uint256",
          "name": "tokenId",
          "type": "uint256"
        }
      ],
      "name": "tokenURI",
      "outputs": [
        {
          "internalType": "string",
          "name": "",
          "type": "string"
        }
      ],
      "stateMutability": "view",
      "type": "function"
    },
    {
      "inputs": [
        {
          "internalType": "address",
          "name": "",
          "type": "address"
        }
      ],
      "name": "totalEmissionBalances",
      "outputs": [
        {
          "internalType": "uint256",
          "name": "",
          "type": "uint256"
        }
      ],
      "stateMutability": "view",
      "type": "function"
    },
    {
      "inputs": [
        {
          "internalType": "address",
          "name": "from",
          "type": "address"
        },
        {
          "internalType": "address",
          "name": "to",
          "type": "address"
        },
        {
          "internalType": "uint256",
          "name": "tokenId",
          "type": "uint256"
        }
      ],
      "name": "transferFrom",
      "outputs": [],
      "stateMutability": "nonpayable",
      "type": "function"
    }
  ],
  "bytecode": "0x608060405234801561001057600080fd5b506040518060400160405280600881526020017f41637469766974790000000000000000000000000000000000000000000000008152506040518060400160405280600481526020017f4143545900000000000000000000000000000000000000000000000000000000815250816000908161008c91906102f4565b50806001908161009c91906102f4565b5050506103c6565b600081519050919050565b7f4e487b7100000000000000000000000000000000000000000000000000000000600052604160045260246000fd5b7f4e487b7100000000000000000000000000000000000000000000000000000000600052602260045260246000fd5b6000600282049050600182168061012557607f821691505b602082108103610138576101376100de565b5b50919050565b60008190508160005260206000209050919050565b60006020601f8301049050919050565b600082821b905092915050565b6000600883026101a07fffffffffffffffffffffffffffffffffffffffffffffffffffffffffffffffff82610163565b6101aa8683610163565b95508019841693508086168417925050509392505050565b6000819050919050565b6000819050919050565b60006101f16101ec6101e7846101c2565b6101cc565b6101c2565b9050919050565b6000819050919050565b61020b836101d6565b61021f610217826101f8565b848454610170565b825550505050565b600090565b610234610227565b61023f818484610202565b505050565b5b818110156102635761025860008261022c565b600181019050610245565b5050565b601f8211156102a8576102798161013e565b61028284610153565b81016020851015610291578190505b6102a561029d85610153565b830182610244565b50505b505050565b600082821c905092915050565b60006102cb600019846008026102ad565b1980831691505092915050565b60006102e483836102ba565b9150826002028217905092915050565b6102fd826100a4565b67ffffffffffffffff811115610316576103156100af565b5b610320825461010d565b61032b828285610267565b600060209050601f83116001811461035e576000841561034c578287015190505b61035685826102d8565b8655506103be565b601f19841661036c8661013e565b60005b828110156103945784890151825560018201915060208501945060208101905061036f565b868310156103b157848901516103ad601f8916826102ba565b8355505b6001600288020188555050505b505050505050565b613de9806103d56000396000f3fe608060405234801561001057600080fd5b50600436106101585760003560e01c806395d89b41116100c3578063c87b56dd1161007c578063c87b56dd146103fe578063c9390fb61461042e578063e9300c6c1461045e578063e985e9c51461048e578063ed8db9d9146104be578063fca97fdb146104f157610158565b806395d89b411461033f578063a1358da41461035d578063a22cb46514610379578063b35659c614610395578063b88d4fde146103b1578063bd7319ad146103cd57610158565b806342842e0e1161011557806342842e0e146102435780636352211e1461025f5780636eb37fd11461028f5780636eb3b4e9146102ab57806370a08231146102dc5780637acc0b201461030c57610158565b806301ffc9a71461015d57806306fdde031461018d578063081812fc146101ab578063095ea7b3146101db57806317440ac9146101f757806323b872dd14610227575b600080fd5b610177600480360381019061017291906128cf565b610524565b6040516101849190612917565b60405180910390f35b610195610606565b6040516101a291906129c2565b60405180910390f35b6101c560048036038101906101c09190612a1a565b610698565b6040516101d29190612a88565b60405180910390f35b6101f560048036038101906101f09190612acf565b6106b4565b005b610211600480360381019061020c9190612b0f565b6106ca565b60405161021e9190612b4b565b60405180910390f35b610241600480360381019061023c9190612b66565b610713565b005b61025d60048036038101906102589190612b66565b610815565b005b61027960048036038101906102749190612a1a565b610835565b6040516102869190612a88565b60405180910390f35b6102a960048036038101906102a49190612cee565b610847565b005b6102c560048036038101906102c09190612a1a565b610a14565b6040516102d3929190612ee3565b60405180910390f35b6102f660048036038101906102f19190612b0f565b610bd4565b6040516103039190612b4b565b60405180910390f35b61032660048036038101906103219190612a1a565b610c8e565b6040516103369493929190612f1a565b60405180910390f35b610347610d66565b60405161035491906129c2565b60405180910390f35b61037760048036038101906103729190612f92565b610df8565b005b610393600480360381019061038e9190612ffe565b611048565b005b6103af60048036038101906103aa9190612f92565b61105e565b005b6103cb60048036038101906103c691906130df565b611155565b005b6103e760048036038101906103e29190612f92565b61117a565b6040516103f5929190613171565b60405180910390f35b61041860048036038101906104139190612a1a565b6112c8565b60405161042591906129c2565b60405180910390f35b61044860048036038101906104439190612b0f565b611331565b6040516104559190612b4b565b60405180910390f35b6104786004803603810190610473919061319a565b611349565b6040516104859190612b4b565b60405180910390f35b6104a860048036038101906104a391906131f6565b611431565b6040516104b59190612917565b60405180910390f35b6104d860048036038101906104d39190613236565b6114c5565b6040516104e89493929190613292565b60405180910390f35b61050b60048036038101906105069190612a1a565b61172a565b60405161051b94939291906134a8565b60405180910390f35b60007f80ac58cd000000000000000000000000000000000000000000000000000000007bffffffffffffffffffffffffffffffffffffffffffffffffffffffff1916827bffffffffffffffffffffffffffffffffffffffffffffffffffffffff191614806105ef57507f5b5e139f000000000000000000000000000000000000000000000000000000007bffffffffffffffffffffffffffffffffffffffffffffffffffffffff1916827bffffffffffffffffffffffffffffffffffffffffffffffffffffffff1916145b806105ff57506105fe82611ae7565b5b9050919050565b60606000805461061590613538565b80601f016020809104026020016040519081016040528092919081815260200182805461064190613538565b801561068e5780601f106106635761010080835404028352916020019161068e565b820191906000526020600020905b81548152906001019060200180831161067157829003601f168201915b5050505050905090565b60006106a382611b51565b506106ad82611bd9565b9050919050565b6106c682826106c1611c16565b611c1e565b5050565b6000600860008373ffffffffffffffffffffffffffffffffffffffff1673ffffffffffffffffffffffffffffffffffffffff168152602001908152602001600020549050919050565b600073ffffffffffffffffffffffffffffffffffffffff168273ffffffffffffffffffffffffffffffffffffffff16036107855760006040517f64a0ae9200000000000000000000000000000000000000000000000000000000815260040161077c9190612a88565b60405180910390fd5b60006107998383610794611c16565b611c30565b90508373ffffffffffffffffffffffffffffffffffffffff168173ffffffffffffffffffffffffffffffffffffffff161461080f578382826040517f64283d7b00000000000000000000000000000000000000000000000000000000815260040161080693929190613569565b60405180910390fd5b50505050565b61083083838360405180602001604052806000815250611155565b505050565b600061084082611b51565b9050919050565b61085083611e4a565b61088f576040517f08c379a0000000000000000000000000000000000000000000000000000000008152600401610886906135ec565b60405180910390fd5b600060405180608001604052804281526020018481526020013373ffffffffffffffffffffffffffffffffffffffff1681526020018381525090506007600085815260200190815260200160002060050181908060018154018082558091505060019003906000526020600020906004020160009091909190915060008201518160000155602082015181600101908161092991906137b8565b5060408201518160020160006101000a81548173ffffffffffffffffffffffffffffffffffffffff021916908373ffffffffffffffffffffffffffffffffffffffff16021790555060608201518160030155505081600860003373ffffffffffffffffffffffffffffffffffffffff1673ffffffffffffffffffffffffffffffffffffffff16815260200190815260200160002060008282546109cc91906138b9565b925050819055507f25ee78eb530fd6d12aade090b9694e437b8f55d4a9427c88c382b77cd3739b4f848433604051610a06939291906138ed565b60405180910390a150505050565b606080610a2083611e4a565b610a5f576040517f08c379a0000000000000000000000000000000000000000000000000000000008152600401610a56906135ec565b60405180910390fd5b6000600760008581526020019081526020016000206004018054905090508067ffffffffffffffff811115610a9757610a96612bc3565b5b604051908082528060200260200182016040528015610ac55781602001602082028036833780820191505090505b5092508067ffffffffffffffff811115610ae257610ae1612bc3565b5b604051908082528060200260200182016040528015610b105781602001602082028036833780820191505090505b50915060005b81811015610bcd576000600760008781526020019081526020016000206004018281548110610b4857610b4761392b565b5b90600052602060002090600202016040518060400160405290816000820154815260200160018201548152505090508060000151858381518110610b8f57610b8e61392b565b5b6020026020010181815250508060200151848381518110610bb357610bb261392b565b5b602002602001018181525050508080600101915050610b16565b5050915091565b60008073ffffffffffffffffffffffffffffffffffffffff168273ffffffffffffffffffffffffffffffffffffffff1603610c475760006040517f89c62b64000000000000000000000000000000000000000000000000000000008152600401610c3e9190612a88565b60405180910390fd5b600360008373ffffffffffffffffffffffffffffffffffffffff1673ffffffffffffffffffffffffffffffffffffffff168152602001908152602001600020549050919050565b6007602052806000526040600020600091509050806000018054610cb190613538565b80601f0160208091040260200160405190810160405280929190818152602001828054610cdd90613538565b8015610d2a5780601f10610cff57610100808354040283529160200191610d2a565b820191906000526020600020905b815481529060010190602001808311610d0d57829003601f168201915b5050505050908060010154908060020154908060030160009054906101000a900473ffffffffffffffffffffffffffffffffffffffff16905084565b606060018054610d7590613538565b80601f0160208091040260200160405190810160405280929190818152602001828054610da190613538565b8015610dee5780601f10610dc357610100808354040283529160200191610dee565b820191906000526020600020905b815481529060010190602001808311610dd157829003601f168201915b5050505050905090565b610e0182611e4a565b610e40576040517f08c379a0000000000000000000000000000000000000000000000000000000008152600401610e37906135ec565b60405180910390fd5b3373ffffffffffffffffffffffffffffffffffffffff16610e6083610835565b73ffffffffffffffffffffffffffffffffffffffff1614610eb6576040517f08c379a0000000000000000000000000000000000000000000000000000000008152600401610ead906139cc565b60405180910390fd5b60006007600084815260200190815260200160002060040190506000818054905090506000805b828110156110005784848281548110610ef957610ef861392b565b5b90600052602060002090600202016001015403610ff3576001915083600184610f2291906139ec565b81548110610f3357610f3261392b565b5b9060005260206000209060020201848281548110610f5457610f5361392b565b5b9060005260206000209060020201600082015481600001556001820154816001015590505083805480610f8a57610f89613a20565b5b60019003818190600052602060002090600202016000808201600090556001820160009055505090557fa46858e97e57c50cbc70f40150dc819ad79942c5f4b4e264df6470f07a30a621868633604051610fe693929190613a4f565b60405180910390a1611000565b8080600101915050610edd565b5080611041576040517f08c379a000000000000000000000000000000000000000000000000000000000815260040161103890613ad2565b60405180910390fd5b5050505050565b61105a611053611c16565b8383611e8b565b5050565b61106782611e4a565b6110a6576040517f08c379a000000000000000000000000000000000000000000000000000000000815260040161109d906135ec565b60405180910390fd5b6000604051806040016040528042815260200183815250905060076000848152602001908152602001600020600401819080600181540180825580915050600190039060005260206000209060020201600090919091909150600082015181600001556020820151816001015550507f1d0efd843fe6e9042a1d75487ad2ed1d9976beb1a63e62d98571b88a7144c07d83833360405161114893929190613a4f565b60405180910390a1505050565b611160848484610713565b61117461116b611c16565b85858585611ffa565b50505050565b60008061118684611e4a565b6111c5576040517f08c379a00000000000000000000000000000000000000000000000000000000081526004016111bc906135ec565b60405180910390fd5b60006007600086815260200190815260200160002060040190506000805b828054905081101561127e57858382815481106112035761120261392b565b5b906000526020600020906002020160010154036112715782818154811061122d5761122c61392b565b5b90600052602060002090600202016000015494508281815481106112545761125361392b565b5b90600052602060002090600202016001015493506001915061127e565b80806001019150506111e3565b50806112bf576040517f08c379a00000000000000000000000000000000000000000000000000000000081526004016112b690613ad2565b60405180910390fd5b50509250929050565b60606112d382611b51565b5060006112de6121ab565b905060008151116112fe5760405180602001604052806000815250611329565b80611308846121c2565b604051602001611319929190613b2e565b6040516020818303038152906040525b915050919050565b60086020528060005260406000206000915090505481565b600080600654905060006007600083815260200190815260200160002090508481600001908161137991906137b8565b50428160010181905550838160020181905550338160030160006101000a81548173ffffffffffffffffffffffffffffffffffffffff021916908373ffffffffffffffffffffffffffffffffffffffff1602179055506113d93383612290565b6006600081548092919060010191905055507faf6ffb6277511513e7d579327cc1fc57f0266df2fb11a60b13487b8c9cd2c38882863360405161141e939291906138ed565b60405180910390a1819250505092915050565b6000600560008473ffffffffffffffffffffffffffffffffffffffff1673ffffffffffffffffffffffffffffffffffffffff16815260200190815260200160002060008373ffffffffffffffffffffffffffffffffffffffff1673ffffffffffffffffffffffffffffffffffffffff16815260200190815260200160002060009054906101000a900460ff16905092915050565b600060606000806114d586611e4a565b611514576040517f08c379a000000000000000000000000000000000000000000000000000000000815260040161150b906135ec565b60405180910390fd5b60006007600088815260200190815260200160002060050190506000805b82805490508110156116de5787805190602001208382815481106115595761155861392b565b5b90600052602060002090600402016001016040516115779190613bf5565b6040518091039020036116d1578281815481106115975761159661392b565b5b90600052602060002090600402016000015496508281815481106115be576115bd61392b565b5b906000526020600020906004020160010180546115da90613538565b80601f016020809104026020016040519081016040528092919081815260200182805461160690613538565b80156116535780601f1061162857610100808354040283529160200191611653565b820191906000526020600020905b81548152906001019060200180831161163657829003601f168201915b5050505050955082818154811061166d5761166c61392b565b5b906000526020600020906004020160020160009054906101000a900473ffffffffffffffffffffffffffffffffffffffff1694508281815481106116b4576116b361392b565b5b9060005260206000209060040201600301549350600191506116de565b8080600101915050611532565b508061171f576040517f08c379a000000000000000000000000000000000000000000000000000000000815260040161171690613c58565b60405180910390fd5b505092959194509250565b60608060608061173985611e4a565b611778576040517f08c379a000000000000000000000000000000000000000000000000000000000815260040161176f906135ec565b60405180910390fd5b6000600760008781526020019081526020016000206005018054905090508067ffffffffffffffff8111156117b0576117af612bc3565b5b6040519080825280602002602001820160405280156117de5781602001602082028036833780820191505090505b5094508067ffffffffffffffff8111156117fb576117fa612bc3565b5b60405190808252806020026020018201604052801561182e57816020015b60608152602001906001900390816118195790505b5093508067ffffffffffffffff81111561184b5761184a612bc3565b5b6040519080825280602002602001820160405280156118795781602001602082028036833780820191505090505b5092508067ffffffffffffffff81111561189657611895612bc3565b5b6040519080825280602002602001820160405280156118c45781602001602082028036833780820191505090505b50915060005b81811015611ade5760006007600089815260200190815260200160002060050182815481106118fc576118fb61392b565b5b90600052602060002090600402016040518060800160405290816000820154815260200160018201805461192f90613538565b80601f016020809104026020016040519081016040528092919081815260200182805461195b90613538565b80156119a85780601f1061197d576101008083540402835291602001916119a8565b820191906000526020600020905b81548152906001019060200180831161198b57829003601f168201915b505050505081526020016002820160009054906101000a900473ffffffffffffffffffffffffffffffffffffffff1673ffffffffffffffffffffffffffffffffffffffff1673ffffffffffffffffffffffffffffffffffffffff16815260200160038201548152505090508060000151878381518110611a2b57611a2a61392b565b5b6020026020010181815250508060200151868381518110611a4f57611a4e61392b565b5b60200260200101819052508060400151858381518110611a7257611a7161392b565b5b602002602001019073ffffffffffffffffffffffffffffffffffffffff16908173ffffffffffffffffffffffffffffffffffffffff16815250508060600151848381518110611ac457611ac361392b565b5b6020026020010181815250505080806001019150506118ca565b50509193509193565b60007f01ffc9a7000000000000000000000000000000000000000000000000000000007bffffffffffffffffffffffffffffffffffffffffffffffffffffffff1916827bffffffffffffffffffffffffffffffffffffffffffffffffffffffff1916149050919050565b600080611b5d83612389565b9050600073ffffffffffffffffffffffffffffffffffffffff168173ffffffffffffffffffffffffffffffffffffffff1603611bd057826040517f7e273289000000000000000000000000000000000000000000000000000000008152600401611bc79190612b4b565b60405180910390fd5b80915050919050565b60006004600083815260200190815260200160002060009054906101000a900473ffffffffffffffffffffffffffffffffffffffff169050919050565b600033905090565b611c2b83838360016123c6565b505050565b600080611c3c84612389565b9050600073ffffffffffffffffffffffffffffffffffffffff168373ffffffffffffffffffffffffffffffffffffffff1614611c7e57611c7d81848661258b565b5b600073ffffffffffffffffffffffffffffffffffffffff168173ffffffffffffffffffffffffffffffffffffffff1614611d0f57611cc06000856000806123c6565b6001600360008373ffffffffffffffffffffffffffffffffffffffff1673ffffffffffffffffffffffffffffffffffffffff168152602001908152602001600020600082825403925050819055505b600073ffffffffffffffffffffffffffffffffffffffff168573ffffffffffffffffffffffffffffffffffffffff1614611d92576001600360008773ffffffffffffffffffffffffffffffffffffffff1673ffffffffffffffffffffffffffffffffffffffff168152602001908152602001600020600082825401925050819055505b846002600086815260200190815260200160002060006101000a81548173ffffffffffffffffffffffffffffffffffffffff021916908373ffffffffffffffffffffffffffffffffffffffff160217905550838573ffffffffffffffffffffffffffffffffffffffff168273ffffffffffffffffffffffffffffffffffffffff167fddf252ad1be2c89b69c2b068fc378daa952ba7f163c4a11628f55a4df523b3ef60405160405180910390a4809150509392505050565b60008073ffffffffffffffffffffffffffffffffffffffff16611e6c83610835565b73ffffffffffffffffffffffffffffffffffffffff1614159050919050565b600073ffffffffffffffffffffffffffffffffffffffff168273ffffffffffffffffffffffffffffffffffffffff1603611efc57816040517f5b08ba18000000000000000000000000000000000000000000000000000000008152600401611ef39190612a88565b60405180910390fd5b80600560008573ffffffffffffffffffffffffffffffffffffffff1673ffffffffffffffffffffffffffffffffffffffff16815260200190815260200160002060008473ffffffffffffffffffffffffffffffffffffffff1673ffffffffffffffffffffffffffffffffffffffff16815260200190815260200160002060006101000a81548160ff0219169083151502179055508173ffffffffffffffffffffffffffffffffffffffff168373ffffffffffffffffffffffffffffffffffffffff167f17307eab39ab6107e8899845ad3d59bd9653f200f220920489ca2b5937696c3183604051611fed9190612917565b60405180910390a3505050565b60008373ffffffffffffffffffffffffffffffffffffffff163b11156121a4578273ffffffffffffffffffffffffffffffffffffffff1663150b7a02868685856040518563ffffffff1660e01b81526004016120599493929190613ccd565b6020604051808303816000875af192505050801561209557506040513d601f19601f820116820180604052508101906120929190613d2e565b60015b612119573d80600081146120c5576040519150601f19603f3d011682016040523d82523d6000602084013e6120ca565b606091505b50600081510361211157836040517f64a0ae920000000000000000000000000000000000000000000000000000000081526004016121089190612a88565b60405180910390fd5b805181602001fd5b63150b7a0260e01b7bffffffffffffffffffffffffffffffffffffffffffffffffffffffff1916817bffffffffffffffffffffffffffffffffffffffffffffffffffffffff1916146121a257836040517f64a0ae920000000000000000000000000000000000000000000000000000000081526004016121999190612a88565b60405180910390fd5b505b5050505050565b606060405180602001604052806000815250905090565b6060600060016121d18461264f565b01905060008167ffffffffffffffff8111156121f0576121ef612bc3565b5b6040519080825280601f01601f1916602001820160405280156122225781602001600182028036833780820191505090505b509050600082602001820190505b600115612285578080600190039150507f3031323334353637383961626364656600000000000000000000000000000000600a86061a8153600a858161227957612278613d5b565b5b04945060008503612230575b819350505050919050565b600073ffffffffffffffffffffffffffffffffffffffff168273ffffffffffffffffffffffffffffffffffffffff16036123025760006040517f64a0ae920000000000000000000000000000000000000000000000000000000081526004016122f99190612a88565b60405180910390fd5b600061231083836000611c30565b9050600073ffffffffffffffffffffffffffffffffffffffff168173ffffffffffffffffffffffffffffffffffffffff16146123845760006040517f73c6ac6e00000000000000000000000000000000000000000000000000000000815260040161237b9190612a88565b60405180910390fd5b505050565b60006002600083815260200190815260200160002060009054906101000a900473ffffffffffffffffffffffffffffffffffffffff169050919050565b80806123ff5750600073ffffffffffffffffffffffffffffffffffffffff168273ffffffffffffffffffffffffffffffffffffffff1614155b1561253357600061240f84611b51565b9050600073ffffffffffffffffffffffffffffffffffffffff168373ffffffffffffffffffffffffffffffffffffffff161415801561247a57508273ffffffffffffffffffffffffffffffffffffffff168173ffffffffffffffffffffffffffffffffffffffff1614155b801561248d575061248b8184611431565b155b156124cf57826040517fa9fbf51f0000000000000000000000000000000000000000000000000000000081526004016124c69190612a88565b60405180910390fd5b811561253157838573ffffffffffffffffffffffffffffffffffffffff168273ffffffffffffffffffffffffffffffffffffffff167f8c5be1e5ebec7d5bd14f71427d1e84f3dd0314c0f7b2291e5b200ac8c7c3b92560405160405180910390a45b505b836004600085815260200190815260200160002060006101000a81548173ffffffffffffffffffffffffffffffffffffffff021916908373ffffffffffffffffffffffffffffffffffffffff16021790555050505050565b6125968383836127a2565b61264a57600073ffffffffffffffffffffffffffffffffffffffff168373ffffffffffffffffffffffffffffffffffffffff160361260b57806040517f7e2732890000000000000000000000000000000000000000000000000000000081526004016126029190612b4b565b60405180910390fd5b81816040517f177e802f000000000000000000000000000000000000000000000000000000008152600401612641929190613d8a565b60405180910390fd5b505050565b600080600090507a184f03e93ff9f4daa797ed6e38ed64bf6a1f01000000000000000083106126ad577a184f03e93ff9f4daa797ed6e38ed64bf6a1f01000000000000000083816126a3576126a2613d5b565b5b0492506040810190505b6d04ee2d6d415b85acef810000000083106126ea576d04ee2d6d415b85acef810000000083816126e0576126df613d5b565b5b0492506020810190505b662386f26fc10000831061271957662386f26fc10000838161270f5761270e613d5b565b5b0492506010810190505b6305f5e1008310612742576305f5e100838161273857612737613d5b565b5b0492506008810190505b612710831061276757612710838161275d5761275c613d5b565b5b0492506004810190505b6064831061278a57606483816127805761277f613d5b565b5b0492506002810190505b600a8310612799576001810190505b80915050919050565b60008073ffffffffffffffffffffffffffffffffffffffff168373ffffffffffffffffffffffffffffffffffffffff161415801561285a57508273ffffffffffffffffffffffffffffffffffffffff168473ffffffffffffffffffffffffffffffffffffffff16148061281b575061281a8484611431565b5b8061285957508273ffffffffffffffffffffffffffffffffffffffff1661284183611bd9565b73ffffffffffffffffffffffffffffffffffffffff16145b5b90509392505050565b6000604051905090565b600080fd5b600080fd5b60007fffffffff0000000000000000000000000000000000000000000000000000000082169050919050565b6128ac81612877565b81146128b757600080fd5b50565b6000813590506128c9816128a3565b92915050565b6000602082840312156128e5576128e461286d565b5b60006128f3848285016128ba565b91505092915050565b60008115159050919050565b612911816128fc565b82525050565b600060208201905061292c6000830184612908565b92915050565b600081519050919050565b600082825260208201905092915050565b60005b8381101561296c578082015181840152602081019050612951565b60008484015250505050565b6000601f19601f8301169050919050565b600061299482612932565b61299e818561293d565b93506129ae81856020860161294e565b6129b781612978565b840191505092915050565b600060208201905081810360008301526129dc8184612989565b905092915050565b6000819050919050565b6129f7816129e4565b8114612a0257600080fd5b50565b600081359050612a14816129ee565b92915050565b600060208284031215612a3057612a2f61286d565b5b6000612a3e84828501612a05565b91505092915050565b600073ffffffffffffffffffffffffffffffffffffffff82169050919050565b6000612a7282612a47565b9050919050565b612a8281612a67565b82525050565b6000602082019050612a9d6000830184612a79565b92915050565b612aac81612a67565b8114612ab757600080fd5b50565b600081359050612ac981612aa3565b92915050565b60008060408385031215612ae657612ae561286d565b5b6000612af485828601612aba565b9250506020612b0585828601612a05565b9150509250929050565b600060208284031215612b2557612b2461286d565b5b6000612b3384828501612aba565b91505092915050565b612b45816129e4565b82525050565b6000602082019050612b606000830184612b3c565b92915050565b600080600060608486031215612b7f57612b7e61286d565b5b6000612b8d86828701612aba565b9350506020612b9e86828701612aba565b9250506040612baf86828701612a05565b9150509250925092565b600080fd5b600080fd5b7f4e487b7100000000000000000000000000000000000000000000000000000000600052604160045260246000fd5b612bfb82612978565b810181811067ffffffffffffffff82111715612c1a57612c19612bc3565b5b80604052505050565b6000612c2d612863565b9050612c398282612bf2565b919050565b600067ffffffffffffffff821115612c5957612c58612bc3565b5b612c6282612978565b9050602081019050919050565b82818337600083830152505050565b6000612c91612c8c84612c3e565b612c23565b905082815260208101848484011115612cad57612cac612bbe565b5b612cb8848285612c6f565b509392505050565b600082601f830112612cd557612cd4612bb9565b5b8135612ce5848260208601612c7e565b91505092915050565b600080600060608486031215612d0757612d0661286d565b5b6000612d1586828701612a05565b935050602084013567ffffffffffffffff811115612d3657612d35612872565b5b612d4286828701612cc0565b9250506040612d5386828701612a05565b9150509250925092565b600081519050919050565b600082825260208201905092915050565b6000819050602082019050919050565b612d92816129e4565b82525050565b6000612da48383612d89565b60208301905092915050565b6000602082019050919050565b6000612dc882612d5d565b612dd28185612d68565b9350612ddd83612d79565b8060005b83811015612e0e578151612df58882612d98565b9750612e0083612db0565b925050600181019050612de1565b5085935050505092915050565b600081519050919050565b600082825260208201905092915050565b6000819050602082019050919050565b6000819050919050565b612e5a81612e47565b82525050565b6000612e6c8383612e51565b60208301905092915050565b6000602082019050919050565b6000612e9082612e1b565b612e9a8185612e26565b9350612ea583612e37565b8060005b83811015612ed6578151612ebd8882612e60565b9750612ec883612e78565b925050600181019050612ea9565b5085935050505092915050565b60006040820190508181036000830152612efd8185612dbd565b90508181036020830152612f118184612e85565b90509392505050565b60006080820190508181036000830152612f348187612989565b9050612f436020830186612b3c565b612f506040830185612b3c565b612f5d6060830184612a79565b95945050505050565b612f6f81612e47565b8114612f7a57600080fd5b50565b600081359050612f8c81612f66565b92915050565b60008060408385031215612fa957612fa861286d565b5b6000612fb785828601612a05565b9250506020612fc885828601612f7d565b9150509250929050565b612fdb816128fc565b8114612fe657600080fd5b50565b600081359050612ff881612fd2565b92915050565b600080604083850312156130155761301461286d565b5b600061302385828601612aba565b925050602061303485828601612fe9565b9150509250929050565b600067ffffffffffffffff82111561305957613058612bc3565b5b61306282612978565b9050602081019050919050565b600061308261307d8461303e565b612c23565b90508281526020810184848401111561309e5761309d612bbe565b5b6130a9848285612c6f565b509392505050565b600082601f8301126130c6576130c5612bb9565b5b81356130d684826020860161306f565b91505092915050565b600080600080608085870312156130f9576130f861286d565b5b600061310787828801612aba565b945050602061311887828801612aba565b935050604061312987828801612a05565b925050606085013567ffffffffffffffff81111561314a57613149612872565b5b613156878288016130b1565b91505092959194509250565b61316b81612e47565b82525050565b60006040820190506131866000830185612b3c565b6131936020830184613162565b9392505050565b600080604083850312156131b1576131b061286d565b5b600083013567ffffffffffffffff8111156131cf576131ce612872565b5b6131db85828601612cc0565b92505060206131ec85828601612a05565b9150509250929050565b6000806040838503121561320d5761320c61286d565b5b600061321b85828601612aba565b925050602061322c85828601612aba565b9150509250929050565b6000806040838503121561324d5761324c61286d565b5b600061325b85828601612a05565b925050602083013567ffffffffffffffff81111561327c5761327b612872565b5b61328885828601612cc0565b9150509250929050565b60006080820190506132a76000830187612b3c565b81810360208301526132b98186612989565b90506132c86040830185612a79565b6132d56060830184612b3c565b95945050505050565b600081519050919050565b600082825260208201905092915050565b6000819050602082019050919050565b600082825260208201905092915050565b600061332682612932565b613330818561330a565b935061334081856020860161294e565b61334981612978565b840191505092915050565b6000613360838361331b565b905092915050565b6000602082019050919050565b6000613380826132de565b61338a81856132e9565b93508360208202850161339c856132fa565b8060005b858110156133d857848403895281516133b98582613354565b94506133c483613368565b925060208a019950506001810190506133a0565b50829750879550505050505092915050565b600081519050919050565b600082825260208201905092915050565b6000819050602082019050919050565b61341f81612a67565b82525050565b60006134318383613416565b60208301905092915050565b6000602082019050919050565b6000613455826133ea565b61345f81856133f5565b935061346a83613406565b8060005b8381101561349b5781516134828882613425565b975061348d8361343d565b92505060018101905061346e565b5085935050505092915050565b600060808201905081810360008301526134c28187612dbd565b905081810360208301526134d68186613375565b905081810360408301526134ea818561344a565b905081810360608301526134fe8184612dbd565b905095945050505050565b7f4e487b7100000000000000000000000000000000000000000000000000000000600052602260045260246000fd5b6000600282049050600182168061355057607f821691505b60208210810361356357613562613509565b5b50919050565b600060608201905061357e6000830186612a79565b61358b6020830185612b3c565b6135986040830184612a79565b949350505050565b7f50726f6475637420646f6573206e6f7420657869737400000000000000000000600082015250565b60006135d660168361293d565b91506135e1826135a0565b602082019050919050565b60006020820190508181036000830152613605816135c9565b9050919050565b60008190508160005260206000209050919050565b60006020601f8301049050919050565b600082821b905092915050565b60006008830261366e7fffffffffffffffffffffffffffffffffffffffffffffffffffffffffffffffff82613631565b6136788683613631565b95508019841693508086168417925050509392505050565b6000819050919050565b60006136b56136b06136ab846129e4565b613690565b6129e4565b9050919050565b6000819050919050565b6136cf8361369a565b6136e36136db826136bc565b84845461363e565b825550505050565b600090565b6136f86136eb565b6137038184846136c6565b505050565b5b818110156137275761371c6000826136f0565b600181019050613709565b5050565b601f82111561376c5761373d8161360c565b61374684613621565b81016020851015613755578190505b61376961376185613621565b830182613708565b50505b505050565b600082821c905092915050565b600061378f60001984600802613771565b1980831691505092915050565b60006137a8838361377e565b9150826002028217905092915050565b6137c182612932565b67ffffffffffffffff8111156137da576137d9612bc3565b5b6137e48254613538565b6137ef82828561372b565b600060209050601f8311600181146138225760008415613810578287015190505b61381a858261379c565b865550613882565b601f1984166138308661360c565b60005b8281101561385857848901518255600182019150602085019450602081019050613833565b868310156138755784890151613871601f89168261377e565b8355505b6001600288020188555050505b505050505050565b7f4e487b7100000000000000000000000000000000000000000000000000000000600052601160045260246000fd5b60006138c4826129e4565b91506138cf836129e4565b92508282019050808211156138e7576138e661388a565b5b92915050565b60006060820190506139026000830186612b3c565b81810360208301526139148185612989565b90506139236040830184612a79565b949350505050565b7f4e487b7100000000000000000000000000000000000000000000000000000000600052603260045260246000fd5b7f4f6e6c7920746865206f776e65722063616e2072656d6f766520646f63756d6560008201527f6e74730000000000000000000000000000000000000000000000000000000000602082015250565b60006139b660238361293d565b91506139c18261395a565b604082019050919050565b600060208201905081810360008301526139e5816139a9565b9050919050565b60006139f7826129e4565b9150613a02836129e4565b9250828203905081811115613a1a57613a1961388a565b5b92915050565b7f4e487b7100000000000000000000000000000000000000000000000000000000600052603160045260246000fd5b6000606082019050613a646000830186612b3c565b613a716020830185613162565b613a7e6040830184612a79565b949350505050565b7f446f63756d656e74206e6f7420666f756e640000000000000000000000000000600082015250565b6000613abc60128361293d565b9150613ac782613a86565b602082019050919050565b60006020820190508181036000830152613aeb81613aaf565b9050919050565b600081905092915050565b6000613b0882612932565b613b128185613af2565b9350613b2281856020860161294e565b80840191505092915050565b6000613b3a8285613afd565b9150613b468284613afd565b91508190509392505050565b600081905092915050565b60008190508160005260206000209050919050565b60008154613b7f81613538565b613b898186613b52565b94506001821660008114613ba45760018114613bb957613bec565b60ff1983168652811515820286019350613bec565b613bc285613b5d565b60005b83811015613be457815481890152600182019150602081019050613bc5565b838801955050505b50505092915050565b6000613c018284613b72565b915081905092915050565b7f4163746976697479206e6f7420666f756e640000000000000000000000000000600082015250565b6000613c4260128361293d565b9150613c4d82613c0c565b602082019050919050565b60006020820190508181036000830152613c7181613c35565b9050919050565b600081519050919050565b600082825260208201905092915050565b6000613c9f82613c78565b613ca98185613c83565b9350613cb981856020860161294e565b613cc281612978565b840191505092915050565b6000608082019050613ce26000830187612a79565b613cef6020830186612a79565b613cfc6040830185612b3c565b8181036060830152613d0e8184613c94565b905095945050505050565b600081519050613d28816128a3565b92915050565b600060208284031215613d4457613d4361286d565b5b6000613d5284828501613d19565b91505092915050565b7f4e487b7100000000000000000000000000000000000000000000000000000000600052601260045260246000fd5b6000604082019050613d9f6000830185612a79565b613dac6020830184612b3c565b939250505056fea2646970667358221220e0a7853fce956d282ebef54f40fc3b26a6ceee5902d9ac79f6caddb3804ef40564736f6c634300081c0033",
  "linkReferences": {},
  "deployedLinkReferences": {}
}