{
  "_format": "hh-sol-artifact-1",
  "contractName": "Activity",
  "sourceName": "contracts/Activity.sol",
  "abi": [
    {
      "inputs": [],
      "stateMutability": "nonpayable",
      "type": "constructor"
    },
    {
      "inputs": [
        {
          "internalType": "address",
          "name": "sender",
          "type": "address"
        },
        {
          "internalType": "uint256",
          "name": "tokenId",
          "type": "uint256"
        },
        {
          "internalType": "address",
          "name": "owner",
          "type": "address"
        }
      ],
      "name": "ERC721IncorrectOwner",
      "type": "error"
    },
    {
      "inputs": [
        {
          "internalType": "address",
          "name": "operator",
          "type": "address"
        },
        {
          "internalType": "uint256",
          "name": "tokenId",
          "type": "uint256"
        }
      ],
      "name": "ERC721InsufficientApproval",
      "type": "error"
    },
    {
      "inputs": [
        {
          "internalType": "address",
          "name": "approver",
          "type": "address"
        }
      ],
      "name": "ERC721InvalidApprover",
      "type": "error"
    },
    {
      "inputs": [
        {
          "internalType": "address",
          "name": "operator",
          "type": "address"
        }
      ],
      "name": "ERC721InvalidOperator",
      "type": "error"
    },
    {
      "inputs": [
        {
          "internalType": "address",
          "name": "owner",
          "type": "address"
        }
      ],
      "name": "ERC721InvalidOwner",
      "type": "error"
    },
    {
      "inputs": [
        {
          "internalType": "address",
          "name": "receiver",
          "type": "address"
        }
      ],
      "name": "ERC721InvalidReceiver",
      "type": "error"
    },
    {
      "inputs": [
        {
          "internalType": "address",
          "name": "sender",
          "type": "address"
        }
      ],
      "name": "ERC721InvalidSender",
      "type": "error"
    },
    {
      "inputs": [
        {
          "internalType": "uint256",
          "name": "tokenId",
          "type": "uint256"
        }
      ],
      "name": "ERC721NonexistentToken",
      "type": "error"
    },
    {
      "anonymous": false,
      "inputs": [
        {
          "indexed": true,
          "internalType": "address",
          "name": "owner",
          "type": "address"
        },
        {
          "indexed": true,
          "internalType": "address",
          "name": "approved",
          "type": "address"
        },
        {
          "indexed": true,
          "internalType": "uint256",
          "name": "tokenId",
          "type": "uint256"
        }
      ],
      "name": "Approval",
      "type": "event"
    },
    {
      "anonymous": false,
      "inputs": [
        {
          "indexed": true,
          "internalType": "address",
          "name": "owner",
          "type": "address"
        },
        {
          "indexed": true,
          "internalType": "address",
          "name": "operator",
          "type": "address"
        },
        {
          "indexed": false,
          "internalType": "bool",
          "name": "approved",
          "type": "bool"
        }
      ],
      "name": "ApprovalForAll",
      "type": "event"
    },
    {
      "anonymous": false,
      "inputs": [
        {
          "indexed": true,
          "internalType": "address",
          "name": "from",
          "type": "address"
        },
        {
          "indexed": true,
          "internalType": "address",
          "name": "to",
          "type": "address"
        },
        {
          "indexed": true,
          "internalType": "uint256",
          "name": "tokenId",
          "type": "uint256"
        }
      ],
      "name": "Transfer",
      "type": "event"
    },
    {
      "inputs": [
        {
          "internalType": "address",
          "name": "to",
          "type": "address"
        },
        {
          "internalType": "uint256",
          "name": "tokenId",
          "type": "uint256"
        }
      ],
      "name": "approve",
      "outputs": [],
      "stateMutability": "nonpayable",
      "type": "function"
    },
    {
      "inputs": [
        {
          "internalType": "address",
          "name": "owner",
          "type": "address"
        }
      ],
      "name": "balanceOf",
      "outputs": [
        {
          "internalType": "uint256",
          "name": "",
          "type": "uint256"
        }
      ],
      "stateMutability": "view",
      "type": "function"
    },
    {
      "inputs": [
        {
          "internalType": "uint256",
          "name": "tokenId",
          "type": "uint256"
        }
      ],
      "name": "getApproved",
      "outputs": [
        {
          "internalType": "address",
          "name": "",
          "type": "address"
        }
      ],
      "stateMutability": "view",
      "type": "function"
    },
    {
      "inputs": [],
      "name": "getEmissionsByActivity",
      "outputs": [
        {
          "internalType": "uint256",
          "name": "",
          "type": "uint256"
        }
      ],
      "stateMutability": "view",
      "type": "function"
    },
    {
      "inputs": [
        {
          "internalType": "address",
          "name": "owner",
          "type": "address"
        },
        {
          "internalType": "address",
          "name": "operator",
          "type": "address"
        }
      ],
      "name": "isApprovedForAll",
      "outputs": [
        {
          "internalType": "bool",
          "name": "",
          "type": "bool"
        }
      ],
      "stateMutability": "view",
      "type": "function"
    },
    {
      "inputs": [],
      "name": "name",
      "outputs": [
        {
          "internalType": "string",
          "name": "",
          "type": "string"
        }
      ],
      "stateMutability": "view",
      "type": "function"
    },
    {
      "inputs": [
        {
          "internalType": "uint256",
          "name": "tokenId",
          "type": "uint256"
        }
      ],
      "name": "ownerOf",
      "outputs": [
        {
          "internalType": "address",
          "name": "",
          "type": "address"
        }
      ],
      "stateMutability": "view",
      "type": "function"
    },
    {
      "inputs": [
        {
          "internalType": "address",
          "name": "from",
          "type": "address"
        },
        {
          "internalType": "address",
          "name": "to",
          "type": "address"
        },
        {
          "internalType": "uint256",
          "name": "tokenId",
          "type": "uint256"
        }
      ],
      "name": "safeTransferFrom",
      "outputs": [],
      "stateMutability": "nonpayable",
      "type": "function"
    },
    {
      "inputs": [
        {
          "internalType": "address",
          "name": "from",
          "type": "address"
        },
        {
          "internalType": "address",
          "name": "to",
          "type": "address"
        },
        {
          "internalType": "uint256",
          "name": "tokenId",
          "type": "uint256"
        },
        {
          "internalType": "bytes",
          "name": "data",
          "type": "bytes"
        }
      ],
      "name": "safeTransferFrom",
      "outputs": [],
      "stateMutability": "nonpayable",
      "type": "function"
    },
    {
      "inputs": [
        {
          "internalType": "address",
          "name": "operator",
          "type": "address"
        },
        {
          "internalType": "bool",
          "name": "approved",
          "type": "bool"
        }
      ],
      "name": "setApprovalForAll",
      "outputs": [],
      "stateMutability": "nonpayable",
      "type": "function"
    },
    {
      "inputs": [
        {
          "internalType": "bytes4",
          "name": "interfaceId",
          "type": "bytes4"
        }
      ],
      "name": "supportsInterface",
      "outputs": [
        {
          "internalType": "bool",
          "name": "",
          "type": "bool"
        }
      ],
      "stateMutability": "view",
      "type": "function"
    },
    {
      "inputs": [],
      "name": "symbol",
      "outputs": [
        {
          "internalType": "string",
          "name": "",
          "type": "string"
        }
      ],
      "stateMutability": "view",
      "type": "function"
    },
    {
      "inputs": [
        {
          "internalType": "uint256",
          "name": "tokenId",
          "type": "uint256"
        }
      ],
      "name": "tokenURI",
      "outputs": [
        {
          "internalType": "string",
          "name": "",
          "type": "string"
        }
      ],
      "stateMutability": "view",
      "type": "function"
    },
    {
      "inputs": [
        {
          "internalType": "address",
          "name": "from",
          "type": "address"
        },
        {
          "internalType": "address",
          "name": "to",
          "type": "address"
        },
        {
          "internalType": "uint256",
          "name": "tokenId",
          "type": "uint256"
        }
      ],
      "name": "transferFrom",
      "outputs": [],
      "stateMutability": "nonpayable",
      "type": "function"
    }
  ],
  "bytecode": "0x608060405234801561001057600080fd5b506040518060400160405280600d81526020017f436172626f6e43726564697473000000000000000000000000000000000000008152506040518060400160405280600281526020017f4343000000000000000000000000000000000000000000000000000000000000815250816000908161008c9190610b34565b50806001908161009c9190610b34565b5050506100b03360006100b560201b60201c565b610cb5565b600073ffffffffffffffffffffffffffffffffffffffff168273ffffffffffffffffffffffffffffffffffffffff16036101275760006040517f64a0ae9200000000000000000000000000000000000000000000000000000000815260040161011e9190610c47565b60405180910390fd5b600061013b838360006101b460201b60201c565b9050600073ffffffffffffffffffffffffffffffffffffffff168173ffffffffffffffffffffffffffffffffffffffff16146101af5760006040517f73c6ac6e0000000000000000000000000000000000000000000000000000000081526004016101a69190610c47565b60405180910390fd5b505050565b6000806101c6846103e060201b60201c565b9050600073ffffffffffffffffffffffffffffffffffffffff168373ffffffffffffffffffffffffffffffffffffffff161461020e5761020d81848661041d60201b60201c565b5b600073ffffffffffffffffffffffffffffffffffffffff168173ffffffffffffffffffffffffffffffffffffffff16146102a5576102566000856000806104e760201b60201c565b6001600360008373ffffffffffffffffffffffffffffffffffffffff1673ffffffffffffffffffffffffffffffffffffffff168152602001908152602001600020600082825403925050819055505b600073ffffffffffffffffffffffffffffffffffffffff168573ffffffffffffffffffffffffffffffffffffffff1614610328576001600360008773ffffffffffffffffffffffffffffffffffffffff1673ffffffffffffffffffffffffffffffffffffffff168152602001908152602001600020600082825401925050819055505b846002600086815260200190815260200160002060006101000a81548173ffffffffffffffffffffffffffffffffffffffff021916908373ffffffffffffffffffffffffffffffffffffffff160217905550838573ffffffffffffffffffffffffffffffffffffffff168273ffffffffffffffffffffffffffffffffffffffff167fddf252ad1be2c89b69c2b068fc378daa952ba7f163c4a11628f55a4df523b3ef60405160405180910390a4809150509392505050565b60006002600083815260200190815260200160002060009054906101000a900473ffffffffffffffffffffffffffffffffffffffff169050919050565b61042e8383836106b860201b60201c565b6104e257600073ffffffffffffffffffffffffffffffffffffffff168373ffffffffffffffffffffffffffffffffffffffff16036104a357806040517f7e27328900000000000000000000000000000000000000000000000000000000815260040161049a9190610c71565b60405180910390fd5b81816040517f177e802f0000000000000000000000000000000000000000000000000000000081526004016104d9929190610c8c565b60405180910390fd5b505050565b80806105205750600073ffffffffffffffffffffffffffffffffffffffff168273ffffffffffffffffffffffffffffffffffffffff1614155b156106605760006105368461078560201b60201c565b9050600073ffffffffffffffffffffffffffffffffffffffff168373ffffffffffffffffffffffffffffffffffffffff16141580156105a157508273ffffffffffffffffffffffffffffffffffffffff168173ffffffffffffffffffffffffffffffffffffffff1614155b80156105ba57506105b8818461081360201b60201c565b155b156105fc57826040517fa9fbf51f0000000000000000000000000000000000000000000000000000000081526004016105f39190610c47565b60405180910390fd5b811561065e57838573ffffffffffffffffffffffffffffffffffffffff168273ffffffffffffffffffffffffffffffffffffffff167f8c5be1e5ebec7d5bd14f71427d1e84f3dd0314c0f7b2291e5b200ac8c7c3b92560405160405180910390a45b505b836004600085815260200190815260200160002060006101000a81548173ffffffffffffffffffffffffffffffffffffffff021916908373ffffffffffffffffffffffffffffffffffffffff16021790555050505050565b60008073ffffffffffffffffffffffffffffffffffffffff168373ffffffffffffffffffffffffffffffffffffffff161415801561077c57508273ffffffffffffffffffffffffffffffffffffffff168473ffffffffffffffffffffffffffffffffffffffff1614806107375750610736848461081360201b60201c565b5b8061077b57508273ffffffffffffffffffffffffffffffffffffffff16610763836108a760201b60201c565b73ffffffffffffffffffffffffffffffffffffffff16145b5b90509392505050565b600080610797836103e060201b60201c565b9050600073ffffffffffffffffffffffffffffffffffffffff168173ffffffffffffffffffffffffffffffffffffffff160361080a57826040517f7e2732890000000000000000000000000000000000000000000000000000000081526004016108019190610c71565b60405180910390fd5b80915050919050565b6000600560008473ffffffffffffffffffffffffffffffffffffffff1673ffffffffffffffffffffffffffffffffffffffff16815260200190815260200160002060008373ffffffffffffffffffffffffffffffffffffffff1673ffffffffffffffffffffffffffffffffffffffff16815260200190815260200160002060009054906101000a900460ff16905092915050565b60006004600083815260200190815260200160002060009054906101000a900473ffffffffffffffffffffffffffffffffffffffff169050919050565b600081519050919050565b7f4e487b7100000000000000000000000000000000000000000000000000000000600052604160045260246000fd5b7f4e487b7100000000000000000000000000000000000000000000000000000000600052602260045260246000fd5b6000600282049050600182168061096557607f821691505b6020821081036109785761097761091e565b5b50919050565b60008190508160005260206000209050919050565b60006020601f8301049050919050565b600082821b905092915050565b6000600883026109e07fffffffffffffffffffffffffffffffffffffffffffffffffffffffffffffffff826109a3565b6109ea86836109a3565b95508019841693508086168417925050509392505050565b6000819050919050565b6000819050919050565b6000610a31610a2c610a2784610a02565b610a0c565b610a02565b9050919050565b6000819050919050565b610a4b83610a16565b610a5f610a5782610a38565b8484546109b0565b825550505050565b600090565b610a74610a67565b610a7f818484610a42565b505050565b5b81811015610aa357610a98600082610a6c565b600181019050610a85565b5050565b601f821115610ae857610ab98161097e565b610ac284610993565b81016020851015610ad1578190505b610ae5610add85610993565b830182610a84565b50505b505050565b600082821c905092915050565b6000610b0b60001984600802610aed565b1980831691505092915050565b6000610b248383610afa565b9150826002028217905092915050565b610b3d826108e4565b67ffffffffffffffff811115610b5657610b556108ef565b5b610b60825461094d565b610b6b828285610aa7565b600060209050601f831160018114610b9e5760008415610b8c578287015190505b610b968582610b18565b865550610bfe565b601f198416610bac8661097e565b60005b82811015610bd457848901518255600182019150602085019450602081019050610baf565b86831015610bf15784890151610bed601f891682610afa565b8355505b6001600288020188555050505b505050505050565b600073ffffffffffffffffffffffffffffffffffffffff82169050919050565b6000610c3182610c06565b9050919050565b610c4181610c26565b82525050565b6000602082019050610c5c6000830184610c38565b92915050565b610c6b81610a02565b82525050565b6000602082019050610c866000830184610c62565b92915050565b6000604082019050610ca16000830185610c38565b610cae6020830184610c62565b9392505050565b611cfe80610cc46000396000f3fe608060405234801561001057600080fd5b50600436106100ea5760003560e01c806370a082311161008c578063b88d4fde11610066578063b88d4fde1461025b578063c87b56dd14610277578063c8d3ab58146102a7578063e985e9c5146102c5576100ea565b806370a08231146101f157806395d89b4114610221578063a22cb4651461023f576100ea565b8063095ea7b3116100c8578063095ea7b31461016d57806323b872dd1461018957806342842e0e146101a55780636352211e146101c1576100ea565b806301ffc9a7146100ef57806306fdde031461011f578063081812fc1461013d575b600080fd5b61010960048036038101906101049190611548565b6102f5565b6040516101169190611590565b60405180910390f35b6101276103d7565b604051610134919061163b565b60405180910390f35b61015760048036038101906101529190611693565b610469565b6040516101649190611701565b60405180910390f35b61018760048036038101906101829190611748565b610485565b005b6101a3600480360381019061019e9190611788565b61049b565b005b6101bf60048036038101906101ba9190611788565b61059d565b005b6101db60048036038101906101d69190611693565b6105bd565b6040516101e89190611701565b60405180910390f35b61020b600480360381019061020691906117db565b6105cf565b6040516102189190611817565b60405180910390f35b610229610689565b604051610236919061163b565b60405180910390f35b6102596004803603810190610254919061185e565b61071b565b005b610275600480360381019061027091906119d3565b610731565b005b610291600480360381019061028c9190611693565b610756565b60405161029e919061163b565b60405180910390f35b6102af6107bf565b6040516102bc9190611817565b60405180910390f35b6102df60048036038101906102da9190611a56565b610806565b6040516102ec9190611590565b60405180910390f35b60007f80ac58cd000000000000000000000000000000000000000000000000000000007bffffffffffffffffffffffffffffffffffffffffffffffffffffffff1916827bffffffffffffffffffffffffffffffffffffffffffffffffffffffff191614806103c057507f5b5e139f000000000000000000000000000000000000000000000000000000007bffffffffffffffffffffffffffffffffffffffffffffffffffffffff1916827bffffffffffffffffffffffffffffffffffffffffffffffffffffffff1916145b806103d057506103cf8261089a565b5b9050919050565b6060600080546103e690611ac5565b80601f016020809104026020016040519081016040528092919081815260200182805461041290611ac5565b801561045f5780601f106104345761010080835404028352916020019161045f565b820191906000526020600020905b81548152906001019060200180831161044257829003601f168201915b5050505050905090565b600061047482610904565b5061047e8261098c565b9050919050565b61049782826104926109c9565b6109d1565b5050565b600073ffffffffffffffffffffffffffffffffffffffff168273ffffffffffffffffffffffffffffffffffffffff160361050d5760006040517f64a0ae920000000000000000000000000000000000000000000000000000000081526004016105049190611701565b60405180910390fd5b6000610521838361051c6109c9565b6109e3565b90508373ffffffffffffffffffffffffffffffffffffffff168173ffffffffffffffffffffffffffffffffffffffff1614610597578382826040517f64283d7b00000000000000000000000000000000000000000000000000000000815260040161058e93929190611af6565b60405180910390fd5b50505050565b6105b883838360405180602001604052806000815250610731565b505050565b60006105c882610904565b9050919050565b60008073ffffffffffffffffffffffffffffffffffffffff168273ffffffffffffffffffffffffffffffffffffffff16036106425760006040517f89c62b640000000000000000000000000000000000000000000000000000000081526004016106399190611701565b60405180910390fd5b600360008373ffffffffffffffffffffffffffffffffffffffff1673ffffffffffffffffffffffffffffffffffffffff168152602001908152602001600020549050919050565b60606001805461069890611ac5565b80601f01602080910402602001604051908101604052809291908181526020018280546106c490611ac5565b80156107115780601f106106e657610100808354040283529160200191610711565b820191906000526020600020905b8154815290600101906020018083116106f457829003601f168201915b5050505050905090565b61072d6107266109c9565b8383610bfd565b5050565b61073c84848461049b565b6107506107476109c9565b85858585610d6c565b50505050565b606061076182610904565b50600061076c610f1d565b9050600081511161078c57604051806020016040528060008152506107b7565b8061079684610f34565b6040516020016107a7929190611b69565b6040516020818303038152906040525b915050919050565b6000600760003373ffffffffffffffffffffffffffffffffffffffff1673ffffffffffffffffffffffffffffffffffffffff16815260200190815260200160002054905090565b6000600560008473ffffffffffffffffffffffffffffffffffffffff1673ffffffffffffffffffffffffffffffffffffffff16815260200190815260200160002060008373ffffffffffffffffffffffffffffffffffffffff1673ffffffffffffffffffffffffffffffffffffffff16815260200190815260200160002060009054906101000a900460ff16905092915050565b60007f01ffc9a7000000000000000000000000000000000000000000000000000000007bffffffffffffffffffffffffffffffffffffffffffffffffffffffff1916827bffffffffffffffffffffffffffffffffffffffffffffffffffffffff1916149050919050565b60008061091083611002565b9050600073ffffffffffffffffffffffffffffffffffffffff168173ffffffffffffffffffffffffffffffffffffffff160361098357826040517f7e27328900000000000000000000000000000000000000000000000000000000815260040161097a9190611817565b60405180910390fd5b80915050919050565b60006004600083815260200190815260200160002060009054906101000a900473ffffffffffffffffffffffffffffffffffffffff169050919050565b600033905090565b6109de838383600161103f565b505050565b6000806109ef84611002565b9050600073ffffffffffffffffffffffffffffffffffffffff168373ffffffffffffffffffffffffffffffffffffffff1614610a3157610a30818486611204565b5b600073ffffffffffffffffffffffffffffffffffffffff168173ffffffffffffffffffffffffffffffffffffffff1614610ac257610a7360008560008061103f565b6001600360008373ffffffffffffffffffffffffffffffffffffffff1673ffffffffffffffffffffffffffffffffffffffff168152602001908152602001600020600082825403925050819055505b600073ffffffffffffffffffffffffffffffffffffffff168573ffffffffffffffffffffffffffffffffffffffff1614610b45576001600360008773ffffffffffffffffffffffffffffffffffffffff1673ffffffffffffffffffffffffffffffffffffffff168152602001908152602001600020600082825401925050819055505b846002600086815260200190815260200160002060006101000a81548173ffffffffffffffffffffffffffffffffffffffff021916908373ffffffffffffffffffffffffffffffffffffffff160217905550838573ffffffffffffffffffffffffffffffffffffffff168273ffffffffffffffffffffffffffffffffffffffff167fddf252ad1be2c89b69c2b068fc378daa952ba7f163c4a11628f55a4df523b3ef60405160405180910390a4809150509392505050565b600073ffffffffffffffffffffffffffffffffffffffff168273ffffffffffffffffffffffffffffffffffffffff1603610c6e57816040517f5b08ba18000000000000000000000000000000000000000000000000000000008152600401610c659190611701565b60405180910390fd5b80600560008573ffffffffffffffffffffffffffffffffffffffff1673ffffffffffffffffffffffffffffffffffffffff16815260200190815260200160002060008473ffffffffffffffffffffffffffffffffffffffff1673ffffffffffffffffffffffffffffffffffffffff16815260200190815260200160002060006101000a81548160ff0219169083151502179055508173ffffffffffffffffffffffffffffffffffffffff168373ffffffffffffffffffffffffffffffffffffffff167f17307eab39ab6107e8899845ad3d59bd9653f200f220920489ca2b5937696c3183604051610d5f9190611590565b60405180910390a3505050565b60008373ffffffffffffffffffffffffffffffffffffffff163b1115610f16578273ffffffffffffffffffffffffffffffffffffffff1663150b7a02868685856040518563ffffffff1660e01b8152600401610dcb9493929190611be2565b6020604051808303816000875af1925050508015610e0757506040513d601f19601f82011682018060405250810190610e049190611c43565b60015b610e8b573d8060008114610e37576040519150601f19603f3d011682016040523d82523d6000602084013e610e3c565b606091505b506000815103610e8357836040517f64a0ae92000000000000000000000000000000000000000000000000000000008152600401610e7a9190611701565b60405180910390fd5b805181602001fd5b63150b7a0260e01b7bffffffffffffffffffffffffffffffffffffffffffffffffffffffff1916817bffffffffffffffffffffffffffffffffffffffffffffffffffffffff191614610f1457836040517f64a0ae92000000000000000000000000000000000000000000000000000000008152600401610f0b9190611701565b60405180910390fd5b505b5050505050565b606060405180602001604052806000815250905090565b606060006001610f43846112c8565b01905060008167ffffffffffffffff811115610f6257610f616118a8565b5b6040519080825280601f01601f191660200182016040528015610f945781602001600182028036833780820191505090505b509050600082602001820190505b600115610ff7578080600190039150507f3031323334353637383961626364656600000000000000000000000000000000600a86061a8153600a8581610feb57610fea611c70565b5b04945060008503610fa2575b819350505050919050565b60006002600083815260200190815260200160002060009054906101000a900473ffffffffffffffffffffffffffffffffffffffff169050919050565b80806110785750600073ffffffffffffffffffffffffffffffffffffffff168273ffffffffffffffffffffffffffffffffffffffff1614155b156111ac57600061108884610904565b9050600073ffffffffffffffffffffffffffffffffffffffff168373ffffffffffffffffffffffffffffffffffffffff16141580156110f357508273ffffffffffffffffffffffffffffffffffffffff168173ffffffffffffffffffffffffffffffffffffffff1614155b801561110657506111048184610806565b155b1561114857826040517fa9fbf51f00000000000000000000000000000000000000000000000000000000815260040161113f9190611701565b60405180910390fd5b81156111aa57838573ffffffffffffffffffffffffffffffffffffffff168273ffffffffffffffffffffffffffffffffffffffff167f8c5be1e5ebec7d5bd14f71427d1e84f3dd0314c0f7b2291e5b200ac8c7c3b92560405160405180910390a45b505b836004600085815260200190815260200160002060006101000a81548173ffffffffffffffffffffffffffffffffffffffff021916908373ffffffffffffffffffffffffffffffffffffffff16021790555050505050565b61120f83838361141b565b6112c357600073ffffffffffffffffffffffffffffffffffffffff168373ffffffffffffffffffffffffffffffffffffffff160361128457806040517f7e27328900000000000000000000000000000000000000000000000000000000815260040161127b9190611817565b60405180910390fd5b81816040517f177e802f0000000000000000000000000000000000000000000000000000000081526004016112ba929190611c9f565b60405180910390fd5b505050565b600080600090507a184f03e93ff9f4daa797ed6e38ed64bf6a1f0100000000000000008310611326577a184f03e93ff9f4daa797ed6e38ed64bf6a1f010000000000000000838161131c5761131b611c70565b5b0492506040810190505b6d04ee2d6d415b85acef81000000008310611363576d04ee2d6d415b85acef8100000000838161135957611358611c70565b5b0492506020810190505b662386f26fc10000831061139257662386f26fc10000838161138857611387611c70565b5b0492506010810190505b6305f5e10083106113bb576305f5e10083816113b1576113b0611c70565b5b0492506008810190505b61271083106113e05761271083816113d6576113d5611c70565b5b0492506004810190505b6064831061140357606483816113f9576113f8611c70565b5b0492506002810190505b600a8310611412576001810190505b80915050919050565b60008073ffffffffffffffffffffffffffffffffffffffff168373ffffffffffffffffffffffffffffffffffffffff16141580156114d357508273ffffffffffffffffffffffffffffffffffffffff168473ffffffffffffffffffffffffffffffffffffffff16148061149457506114938484610806565b5b806114d257508273ffffffffffffffffffffffffffffffffffffffff166114ba8361098c565b73ffffffffffffffffffffffffffffffffffffffff16145b5b90509392505050565b6000604051905090565b600080fd5b600080fd5b60007fffffffff0000000000000000000000000000000000000000000000000000000082169050919050565b611525816114f0565b811461153057600080fd5b50565b6000813590506115428161151c565b92915050565b60006020828403121561155e5761155d6114e6565b5b600061156c84828501611533565b91505092915050565b60008115159050919050565b61158a81611575565b82525050565b60006020820190506115a56000830184611581565b92915050565b600081519050919050565b600082825260208201905092915050565b60005b838110156115e55780820151818401526020810190506115ca565b60008484015250505050565b6000601f19601f8301169050919050565b600061160d826115ab565b61161781856115b6565b93506116278185602086016115c7565b611630816115f1565b840191505092915050565b600060208201905081810360008301526116558184611602565b905092915050565b6000819050919050565b6116708161165d565b811461167b57600080fd5b50565b60008135905061168d81611667565b92915050565b6000602082840312156116a9576116a86114e6565b5b60006116b78482850161167e565b91505092915050565b600073ffffffffffffffffffffffffffffffffffffffff82169050919050565b60006116eb826116c0565b9050919050565b6116fb816116e0565b82525050565b600060208201905061171660008301846116f2565b92915050565b611725816116e0565b811461173057600080fd5b50565b6000813590506117428161171c565b92915050565b6000806040838503121561175f5761175e6114e6565b5b600061176d85828601611733565b925050602061177e8582860161167e565b9150509250929050565b6000806000606084860312156117a1576117a06114e6565b5b60006117af86828701611733565b93505060206117c086828701611733565b92505060406117d18682870161167e565b9150509250925092565b6000602082840312156117f1576117f06114e6565b5b60006117ff84828501611733565b91505092915050565b6118118161165d565b82525050565b600060208201905061182c6000830184611808565b92915050565b61183b81611575565b811461184657600080fd5b50565b60008135905061185881611832565b92915050565b60008060408385031215611875576118746114e6565b5b600061188385828601611733565b925050602061189485828601611849565b9150509250929050565b600080fd5b600080fd5b7f4e487b7100000000000000000000000000000000000000000000000000000000600052604160045260246000fd5b6118e0826115f1565b810181811067ffffffffffffffff821117156118ff576118fe6118a8565b5b80604052505050565b60006119126114dc565b905061191e82826118d7565b919050565b600067ffffffffffffffff82111561193e5761193d6118a8565b5b611947826115f1565b9050602081019050919050565b82818337600083830152505050565b600061197661197184611923565b611908565b905082815260208101848484011115611992576119916118a3565b5b61199d848285611954565b509392505050565b600082601f8301126119ba576119b961189e565b5b81356119ca848260208601611963565b91505092915050565b600080600080608085870312156119ed576119ec6114e6565b5b60006119fb87828801611733565b9450506020611a0c87828801611733565b9350506040611a1d8782880161167e565b925050606085013567ffffffffffffffff811115611a3e57611a3d6114eb565b5b611a4a878288016119a5565b91505092959194509250565b60008060408385031215611a6d57611a6c6114e6565b5b6000611a7b85828601611733565b9250506020611a8c85828601611733565b9150509250929050565b7f4e487b7100000000000000000000000000000000000000000000000000000000600052602260045260246000fd5b60006002820490506001821680611add57607f821691505b602082108103611af057611aef611a96565b5b50919050565b6000606082019050611b0b60008301866116f2565b611b186020830185611808565b611b2560408301846116f2565b949350505050565b600081905092915050565b6000611b43826115ab565b611b4d8185611b2d565b9350611b5d8185602086016115c7565b80840191505092915050565b6000611b758285611b38565b9150611b818284611b38565b91508190509392505050565b600081519050919050565b600082825260208201905092915050565b6000611bb482611b8d565b611bbe8185611b98565b9350611bce8185602086016115c7565b611bd7816115f1565b840191505092915050565b6000608082019050611bf760008301876116f2565b611c0460208301866116f2565b611c116040830185611808565b8181036060830152611c238184611ba9565b905095945050505050565b600081519050611c3d8161151c565b92915050565b600060208284031215611c5957611c586114e6565b5b6000611c6784828501611c2e565b91505092915050565b7f4e487b7100000000000000000000000000000000000000000000000000000000600052601260045260246000fd5b6000604082019050611cb460008301856116f2565b611cc16020830184611808565b939250505056fea26469706673582212207fbee6ff74628130138f25161cd340994e2b76177f53e469f8840ae4a10207b864736f6c634300081c0033",
  "linkReferences": {},
  "deployedLinkReferences": {}
}